{
	"data": {
		"bytecode": {
			"linkReferences": {},
			"object": "608060405234801561001057600080fd5b50610206806100206000396000f3fe608060405260043610610041576000357c0100000000000000000000000000000000000000000000000000000000900463ffffffff1680635f72f45014610046575b600080fd5b34801561005257600080fd5b5061007f6004803603602081101561006957600080fd5b81019080803590602001909291905050506100fa565b6040518080602001828103825283818151815260200191508051906020019080838360005b838110156100bf5780820151818401526020810190506100a4565b50505050905090810190601f1680156100ec5780820380516001836020036101000a031916815260200191505b509250505060405180910390f35b6060806012831015610143576040805190810160405280600d81526020017f796f7520617265204368696c640000000000000000000000000000000000000081525090506101d1565b60128310158015610155575060288311155b15610197576040805190810160405280600d81526020017f796f7520617265204164756c740000000000000000000000000000000000000081525090506101d0565b6040805190810160405280600b81526020017f796f7520617265204f6c6400000000000000000000000000000000000000000081525090505b5b8091505091905056fea165627a7a723058209fdf16b0c9637f7a462160c8213b7326c2c2ea856615a23deabe2692bc5286790029",
			"opcodes": "PUSH1 0x80 PUSH1 0x40 MSTORE CALLVALUE DUP1 ISZERO PUSH2 0x10 JUMPI PUSH1 0x0 DUP1 REVERT JUMPDEST POP PUSH2 0x206 DUP1 PUSH2 0x20 PUSH1 0x0 CODECOPY PUSH1 0x0 RETURN INVALID PUSH1 0x80 PUSH1 0x40 MSTORE PUSH1 0x4 CALLDATASIZE LT PUSH2 0x41 JUMPI PUSH1 0x0 CALLDATALOAD PUSH29 0x100000000000000000000000000000000000000000000000000000000 SWAP1 DIV PUSH4 0xFFFFFFFF AND DUP1 PUSH4 0x5F72F450 EQ PUSH2 0x46 JUMPI JUMPDEST PUSH1 0x0 DUP1 REVERT JUMPDEST CALLVALUE DUP1 ISZERO PUSH2 0x52 JUMPI PUSH1 0x0 DUP1 REVERT JUMPDEST POP PUSH2 0x7F PUSH1 0x4 DUP1 CALLDATASIZE SUB PUSH1 0x20 DUP2 LT ISZERO PUSH2 0x69 JUMPI PUSH1 0x0 DUP1 REVERT JUMPDEST DUP2 ADD SWAP1 DUP1 DUP1 CALLDATALOAD SWAP1 PUSH1 0x20 ADD SWAP1 SWAP3 SWAP2 SWAP1 POP POP POP PUSH2 0xFA JUMP JUMPDEST PUSH1 0x40 MLOAD DUP1 DUP1 PUSH1 0x20 ADD DUP3 DUP2 SUB DUP3 MSTORE DUP4 DUP2 DUP2 MLOAD DUP2 MSTORE PUSH1 0x20 ADD SWAP2 POP DUP1 MLOAD SWAP1 PUSH1 0x20 ADD SWAP1 DUP1 DUP4 DUP4 PUSH1 0x0 JUMPDEST DUP4 DUP2 LT ISZERO PUSH2 0xBF JUMPI DUP1 DUP3 ADD MLOAD DUP2 DUP5 ADD MSTORE PUSH1 0x20 DUP2 ADD SWAP1 POP PUSH2 0xA4 JUMP JUMPDEST POP POP POP POP SWAP1 POP SWAP1 DUP2 ADD SWAP1 PUSH1 0x1F AND DUP1 ISZERO PUSH2 0xEC JUMPI DUP1 DUP3 SUB DUP1 MLOAD PUSH1 0x1 DUP4 PUSH1 0x20 SUB PUSH2 0x100 EXP SUB NOT AND DUP2 MSTORE PUSH1 0x20 ADD SWAP2 POP JUMPDEST POP SWAP3 POP POP POP PUSH1 0x40 MLOAD DUP1 SWAP2 SUB SWAP1 RETURN JUMPDEST PUSH1 0x60 DUP1 PUSH1 0x12 DUP4 LT ISZERO PUSH2 0x143 JUMPI PUSH1 0x40 DUP1 MLOAD SWAP1 DUP2 ADD PUSH1 0x40 MSTORE DUP1 PUSH1 0xD DUP2 MSTORE PUSH1 0x20 ADD PUSH32 0x796F7520617265204368696C6400000000000000000000000000000000000000 DUP2 MSTORE POP SWAP1 POP PUSH2 0x1D1 JUMP JUMPDEST PUSH1 0x12 DUP4 LT ISZERO DUP1 ISZERO PUSH2 0x155 JUMPI POP PUSH1 0x28 DUP4 GT ISZERO JUMPDEST ISZERO PUSH2 0x197 JUMPI PUSH1 0x40 DUP1 MLOAD SWAP1 DUP2 ADD PUSH1 0x40 MSTORE DUP1 PUSH1 0xD DUP2 MSTORE PUSH1 0x20 ADD PUSH32 0x796F7520617265204164756C7400000000000000000000000000000000000000 DUP2 MSTORE POP SWAP1 POP PUSH2 0x1D0 JUMP JUMPDEST PUSH1 0x40 DUP1 MLOAD SWAP1 DUP2 ADD PUSH1 0x40 MSTORE DUP1 PUSH1 0xB DUP2 MSTORE PUSH1 0x20 ADD PUSH32 0x796F7520617265204F6C64000000000000000000000000000000000000000000 DUP2 MSTORE POP SWAP1 POP JUMPDEST JUMPDEST DUP1 SWAP2 POP POP SWAP2 SWAP1 POP JUMP INVALID LOG1 PUSH6 0x627A7A723058 KECCAK256 SWAP16 0xdf AND 0xb0 0xc9 PUSH4 0x7F7A4621 PUSH1 0xC8 0x21 EXTCODESIZE PUSH20 0x26C2C2EA856615A23DEABE2692BC528679002900 "
		},
		"gasEstimates": {
			"creation": {
				"codeDepositCost": "103600",
				"executionCost": "153",
				"totalCost": "103753"
			},
			"external": {
				"check(uint256)": "infinite"
			}
		},
		"methodIdentifiers": {
			"check(uint256)": "5f72f450"
		}
	},
	"abi": [
		{
			"constant": true,
			"inputs": [
				{
					"name": "age",
					"type": "uint256"
				}
			],
			"name": "check",
			"outputs": [
				{
					"name": "",
					"type": "string"
				}
			],
			"payable": false,
			"stateMutability": "view",
			"type": "function"
		}
	]
}