{
	"data": {
		"bytecode": {
			"linkReferences": {},
			"object": "608060405260ff6000806101000a81548160ff021916908360ff16021790555034801561002b57600080fd5b5060fb8061003a6000396000f3fe6080604052600436106049576000357c0100000000000000000000000000000000000000000000000000000000900463ffffffff1680633f3108f714604e5780633fa4f245146062575b600080fd5b348015605957600080fd5b5060606090565b005b348015606d57600080fd5b50607460bd565b604051808260ff1660ff16815260200191505060405180910390f35b60016000809054906101000a900460ff16016000806101000a81548160ff021916908360ff160217905550565b6000809054906101000a900460ff168156fea165627a7a7230582081f0a0e94e46c261b49024e5e8e2ea82aaf9b5071f467d86df0e337f6a6123b90029",
			"opcodes": "PUSH1 0x80 PUSH1 0x40 MSTORE PUSH1 0xFF PUSH1 0x0 DUP1 PUSH2 0x100 EXP DUP2 SLOAD DUP2 PUSH1 0xFF MUL NOT AND SWAP1 DUP4 PUSH1 0xFF AND MUL OR SWAP1 SSTORE POP CALLVALUE DUP1 ISZERO PUSH2 0x2B JUMPI PUSH1 0x0 DUP1 REVERT JUMPDEST POP PUSH1 0xFB DUP1 PUSH2 0x3A PUSH1 0x0 CODECOPY PUSH1 0x0 RETURN INVALID PUSH1 0x80 PUSH1 0x40 MSTORE PUSH1 0x4 CALLDATASIZE LT PUSH1 0x49 JUMPI PUSH1 0x0 CALLDATALOAD PUSH29 0x100000000000000000000000000000000000000000000000000000000 SWAP1 DIV PUSH4 0xFFFFFFFF AND DUP1 PUSH4 0x3F3108F7 EQ PUSH1 0x4E JUMPI DUP1 PUSH4 0x3FA4F245 EQ PUSH1 0x62 JUMPI JUMPDEST PUSH1 0x0 DUP1 REVERT JUMPDEST CALLVALUE DUP1 ISZERO PUSH1 0x59 JUMPI PUSH1 0x0 DUP1 REVERT JUMPDEST POP PUSH1 0x60 PUSH1 0x90 JUMP JUMPDEST STOP JUMPDEST CALLVALUE DUP1 ISZERO PUSH1 0x6D JUMPI PUSH1 0x0 DUP1 REVERT JUMPDEST POP PUSH1 0x74 PUSH1 0xBD JUMP JUMPDEST PUSH1 0x40 MLOAD DUP1 DUP3 PUSH1 0xFF AND PUSH1 0xFF AND DUP2 MSTORE PUSH1 0x20 ADD SWAP2 POP POP PUSH1 0x40 MLOAD DUP1 SWAP2 SUB SWAP1 RETURN JUMPDEST PUSH1 0x1 PUSH1 0x0 DUP1 SWAP1 SLOAD SWAP1 PUSH2 0x100 EXP SWAP1 DIV PUSH1 0xFF AND ADD PUSH1 0x0 DUP1 PUSH2 0x100 EXP DUP2 SLOAD DUP2 PUSH1 0xFF MUL NOT AND SWAP1 DUP4 PUSH1 0xFF AND MUL OR SWAP1 SSTORE POP JUMP JUMPDEST PUSH1 0x0 DUP1 SWAP1 SLOAD SWAP1 PUSH2 0x100 EXP SWAP1 DIV PUSH1 0xFF AND DUP2 JUMP INVALID LOG1 PUSH6 0x627A7A723058 KECCAK256 DUP2 CREATE LOG0 0xe9 0x4e 0x46 0xc2 PUSH2 0xB490 0x24 0xe5 0xe8 0xe2 0xea DUP3 0xaa 0xf9 0xb5 SMOD 0x1f 0x46 PUSH30 0x86DF0E337F6A6123B9002900000000000000000000000000000000000000 "
		},
		"gasEstimates": {
			"creation": {
				"codeDepositCost": "50200",
				"executionCost": "20366",
				"totalCost": "70566"
			},
			"external": {
				"setter()": "20642",
				"value()": "464"
			}
		},
		"methodIdentifiers": {
			"setter()": "3f3108f7",
			"value()": "3fa4f245"
		}
	},
	"abi": [
		{
			"constant": false,
			"inputs": [],
			"name": "setter",
			"outputs": [],
			"payable": false,
			"stateMutability": "nonpayable",
			"type": "function"
		},
		{
			"constant": true,
			"inputs": [],
			"name": "value",
			"outputs": [
				{
					"name": "",
					"type": "uint8"
				}
			],
			"payable": false,
			"stateMutability": "view",
			"type": "function"
		}
	]
}