{
	"day9(byte array)/byte.sol": {
		"ByteArray": {
			"abi": [
				{
					"constant": true,
					"inputs": [],
					"name": "b2",
					"outputs": [
						{
							"name": "",
							"type": "bytes2"
						}
					],
					"payable": false,
					"stateMutability": "view",
					"type": "function"
				},
				{
					"constant": true,
					"inputs": [],
					"name": "b4",
					"outputs": [
						{
							"name": "",
							"type": "bytes4"
						}
					],
					"payable": false,
					"stateMutability": "view",
					"type": "function"
				},
				{
					"constant": false,
					"inputs": [],
					"name": "setter",
					"outputs": [],
					"payable": false,
					"stateMutability": "nonpayable",
					"type": "function"
				},
				{
					"constant": true,
					"inputs": [],
					"name": "b3",
					"outputs": [
						{
							"name": "",
							"type": "bytes3"
						}
					],
					"payable": false,
					"stateMutability": "view",
					"type": "function"
				}
			],
			"devdoc": {
				"methods": {}
			},
			"evm": {
				"assembly": "    /* \"day9(byte array)/byte.sol\":72:528  contract ByteArray{\r... */\n  mstore(0x40, 0x80)\n  callvalue\n    /* \"--CODEGEN--\":8:17   */\n  dup1\n    /* \"--CODEGEN--\":5:7   */\n  iszero\n  tag_1\n  jumpi\n    /* \"--CODEGEN--\":30:31   */\n  0x0\n    /* \"--CODEGEN--\":27:28   */\n  dup1\n    /* \"--CODEGEN--\":20:32   */\n  revert\n    /* \"--CODEGEN--\":5:7   */\ntag_1:\n    /* \"day9(byte array)/byte.sol\":72:528  contract ByteArray{\r... */\n  pop\n  dataSize(sub_0)\n  dup1\n  dataOffset(sub_0)\n  0x0\n  codecopy\n  0x0\n  return\nstop\n\nsub_0: assembly {\n        /* \"day9(byte array)/byte.sol\":72:528  contract ByteArray{\r... */\n      mstore(0x40, 0x80)\n      jumpi(tag_1, lt(calldatasize, 0x4))\n      calldataload(0x0)\n      0x100000000000000000000000000000000000000000000000000000000\n      swap1\n      div\n      0xffffffff\n      and\n      dup1\n      0xadd6ef2\n      eq\n      tag_2\n      jumpi\n      dup1\n      0x3db3fb0a\n      eq\n      tag_3\n      jumpi\n      dup1\n      0x3f3108f7\n      eq\n      tag_4\n      jumpi\n      dup1\n      0xe9b61909\n      eq\n      tag_5\n      jumpi\n    tag_1:\n      0x0\n      dup1\n      revert\n        /* \"day9(byte array)/byte.sol\":170:186  bytes2 public b2 */\n    tag_2:\n      callvalue\n        /* \"--CODEGEN--\":8:17   */\n      dup1\n        /* \"--CODEGEN--\":5:7   */\n      iszero\n      tag_6\n      jumpi\n        /* \"--CODEGEN--\":30:31   */\n      0x0\n        /* \"--CODEGEN--\":27:28   */\n      dup1\n        /* \"--CODEGEN--\":20:32   */\n      revert\n        /* \"--CODEGEN--\":5:7   */\n    tag_6:\n        /* \"day9(byte array)/byte.sol\":170:186  bytes2 public b2 */\n      pop\n      tag_7\n      jump(tag_8)\n    tag_7:\n      mload(0x40)\n      dup1\n      dup3\n      not(0xffffffffffffffffffffffffffffffffffffffffffffffffffffffffffff)\n      and\n      not(0xffffffffffffffffffffffffffffffffffffffffffffffffffffffffffff)\n      and\n      dup2\n      mstore\n      0x20\n      add\n      swap2\n      pop\n      pop\n      mload(0x40)\n      dup1\n      swap2\n      sub\n      swap1\n      return\n        /* \"day9(byte array)/byte.sol\":209:225  bytes4 public b4 */\n    tag_3:\n      callvalue\n        /* \"--CODEGEN--\":8:17   */\n      dup1\n        /* \"--CODEGEN--\":5:7   */\n      iszero\n      tag_9\n      jumpi\n        /* \"--CODEGEN--\":30:31   */\n      0x0\n        /* \"--CODEGEN--\":27:28   */\n      dup1\n        /* \"--CODEGEN--\":20:32   */\n      revert\n        /* \"--CODEGEN--\":5:7   */\n    tag_9:\n        /* \"day9(byte array)/byte.sol\":209:225  bytes4 public b4 */\n      pop\n      tag_10\n      jump(tag_11)\n    tag_10:\n      mload(0x40)\n      dup1\n      dup3\n      not(0xffffffffffffffffffffffffffffffffffffffffffffffffffffffff)\n      and\n      not(0xffffffffffffffffffffffffffffffffffffffffffffffffffffffff)\n      and\n      dup2\n      mstore\n      0x20\n      add\n      swap2\n      pop\n      pop\n      mload(0x40)\n      dup1\n      swap2\n      sub\n      swap1\n      return\n        /* \"day9(byte array)/byte.sol\":249:525  function setter() public{\r... */\n    tag_4:\n      callvalue\n        /* \"--CODEGEN--\":8:17   */\n      dup1\n        /* \"--CODEGEN--\":5:7   */\n      iszero\n      tag_12\n      jumpi\n        /* \"--CODEGEN--\":30:31   */\n      0x0\n        /* \"--CODEGEN--\":27:28   */\n      dup1\n        /* \"--CODEGEN--\":20:32   */\n      revert\n        /* \"--CODEGEN--\":5:7   */\n    tag_12:\n        /* \"day9(byte array)/byte.sol\":249:525  function setter() public{\r... */\n      pop\n      tag_13\n      jump(tag_14)\n    tag_13:\n      stop\n        /* \"day9(byte array)/byte.sol\":97:113  bytes3 public b3 */\n    tag_5:\n      callvalue\n        /* \"--CODEGEN--\":8:17   */\n      dup1\n        /* \"--CODEGEN--\":5:7   */\n      iszero\n      tag_15\n      jumpi\n        /* \"--CODEGEN--\":30:31   */\n      0x0\n        /* \"--CODEGEN--\":27:28   */\n      dup1\n        /* \"--CODEGEN--\":20:32   */\n      revert\n        /* \"--CODEGEN--\":5:7   */\n    tag_15:\n        /* \"day9(byte array)/byte.sol\":97:113  bytes3 public b3 */\n      pop\n      tag_16\n      jump(tag_17)\n    tag_16:\n      mload(0x40)\n      dup1\n      dup3\n      not(0xffffffffffffffffffffffffffffffffffffffffffffffffffffffffff)\n      and\n      not(0xffffffffffffffffffffffffffffffffffffffffffffffffffffffffff)\n      and\n      dup2\n      mstore\n      0x20\n      add\n      swap2\n      pop\n      pop\n      mload(0x40)\n      dup1\n      swap2\n      sub\n      swap1\n      return\n        /* \"day9(byte array)/byte.sol\":170:186  bytes2 public b2 */\n    tag_8:\n      0x0\n      0x3\n      swap1\n      sload\n      swap1\n      0x100\n      exp\n      swap1\n      div\n      0x1000000000000000000000000000000000000000000000000000000000000\n      mul\n      dup2\n      jump\t// out\n        /* \"day9(byte array)/byte.sol\":209:225  bytes4 public b4 */\n    tag_11:\n      0x0\n      0x5\n      swap1\n      sload\n      swap1\n      0x100\n      exp\n      swap1\n      div\n      0x100000000000000000000000000000000000000000000000000000000\n      mul\n      dup2\n      jump\t// out\n        /* \"day9(byte array)/byte.sol\":249:525  function setter() public{\r... */\n    tag_14:\n        /* \"day9(byte array)/byte.sol\":284:292  b3='abc' */\n      0x6162630000000000000000000000000000000000000000000000000000000000\n        /* \"day9(byte array)/byte.sol\":284:286  b3 */\n      0x0\n      dup1\n        /* \"day9(byte array)/byte.sol\":284:292  b3='abc' */\n      0x100\n      exp\n      dup2\n      sload\n      dup2\n      0xffffff\n      mul\n      not\n      and\n      swap1\n      dup4\n      0x10000000000000000000000000000000000000000000000000000000000\n      swap1\n      div\n      mul\n      or\n      swap1\n      sstore\n      pop\n        /* \"day9(byte array)/byte.sol\":365:372  b2='ab' */\n      0x6162000000000000000000000000000000000000000000000000000000000000\n        /* \"day9(byte array)/byte.sol\":365:367  b2 */\n      0x0\n      0x3\n        /* \"day9(byte array)/byte.sol\":365:372  b2='ab' */\n      0x100\n      exp\n      dup2\n      sload\n      dup2\n      0xffff\n      mul\n      not\n      and\n      swap1\n      dup4\n      0x1000000000000000000000000000000000000000000000000000000000000\n      swap1\n      div\n      mul\n      or\n      swap1\n      sstore\n      pop\n        /* \"day9(byte array)/byte.sol\":467:475  b4='abc' */\n      0x6162630000000000000000000000000000000000000000000000000000000000\n        /* \"day9(byte array)/byte.sol\":467:469  b4 */\n      0x0\n      0x5\n        /* \"day9(byte array)/byte.sol\":467:475  b4='abc' */\n      0x100\n      exp\n      dup2\n      sload\n      dup2\n      0xffffffff\n      mul\n      not\n      and\n      swap1\n      dup4\n      0x100000000000000000000000000000000000000000000000000000000\n      swap1\n      div\n      mul\n      or\n      swap1\n      sstore\n      pop\n        /* \"day9(byte array)/byte.sol\":249:525  function setter() public{\r... */\n      jump\t// out\n        /* \"day9(byte array)/byte.sol\":97:113  bytes3 public b3 */\n    tag_17:\n      0x0\n      dup1\n      swap1\n      sload\n      swap1\n      0x100\n      exp\n      swap1\n      div\n      0x10000000000000000000000000000000000000000000000000000000000\n      mul\n      dup2\n      jump\t// out\n\n    auxdata: 0xa165627a7a72305820414dd9027edacfbb6071c89fccf977dfc25a0fdb025b368802dbf63e81251e400029\n}\n",
				"bytecode": {
					"linkReferences": {},
					"object": "608060405234801561001057600080fd5b5061038c806100206000396000f3fe608060405260043610610062576000357c0100000000000000000000000000000000000000000000000000000000900463ffffffff1680630add6ef2146100675780633db3fb0a146100d45780633f3108f71461013d578063e9b6190914610154575b600080fd5b34801561007357600080fd5b5061007c6101bf565b60405180827dffffffffffffffffffffffffffffffffffffffffffffffffffffffffffff19167dffffffffffffffffffffffffffffffffffffffffffffffffffffffffffff1916815260200191505060405180910390f35b3480156100e057600080fd5b506100e96101f0565b60405180827bffffffffffffffffffffffffffffffffffffffffffffffffffffffff19167bffffffffffffffffffffffffffffffffffffffffffffffffffffffff1916815260200191505060405180910390f35b34801561014957600080fd5b5061015261021f565b005b34801561016057600080fd5b50610169610331565b60405180827cffffffffffffffffffffffffffffffffffffffffffffffffffffffffff19167cffffffffffffffffffffffffffffffffffffffffffffffffffffffffff1916815260200191505060405180910390f35b600060039054906101000a90047e010000000000000000000000000000000000000000000000000000000000000281565b600060059054906101000a90047c01000000000000000000000000000000000000000000000000000000000281565b7f61626300000000000000000000000000000000000000000000000000000000006000806101000a81548162ffffff02191690837d010000000000000000000000000000000000000000000000000000000000900402179055507f6162000000000000000000000000000000000000000000000000000000000000600060036101000a81548161ffff02191690837e01000000000000000000000000000000000000000000000000000000000000900402179055507f6162630000000000000000000000000000000000000000000000000000000000600060056101000a81548163ffffffff02191690837c010000000000000000000000000000000000000000000000000000000090040217905550565b6000809054906101000a90047d010000000000000000000000000000000000000000000000000000000000028156fea165627a7a72305820414dd9027edacfbb6071c89fccf977dfc25a0fdb025b368802dbf63e81251e400029",
					"opcodes": "PUSH1 0x80 PUSH1 0x40 MSTORE CALLVALUE DUP1 ISZERO PUSH2 0x10 JUMPI PUSH1 0x0 DUP1 REVERT JUMPDEST POP PUSH2 0x38C DUP1 PUSH2 0x20 PUSH1 0x0 CODECOPY PUSH1 0x0 RETURN INVALID PUSH1 0x80 PUSH1 0x40 MSTORE PUSH1 0x4 CALLDATASIZE LT PUSH2 0x62 JUMPI PUSH1 0x0 CALLDATALOAD PUSH29 0x100000000000000000000000000000000000000000000000000000000 SWAP1 DIV PUSH4 0xFFFFFFFF AND DUP1 PUSH4 0xADD6EF2 EQ PUSH2 0x67 JUMPI DUP1 PUSH4 0x3DB3FB0A EQ PUSH2 0xD4 JUMPI DUP1 PUSH4 0x3F3108F7 EQ PUSH2 0x13D JUMPI DUP1 PUSH4 0xE9B61909 EQ PUSH2 0x154 JUMPI JUMPDEST PUSH1 0x0 DUP1 REVERT JUMPDEST CALLVALUE DUP1 ISZERO PUSH2 0x73 JUMPI PUSH1 0x0 DUP1 REVERT JUMPDEST POP PUSH2 0x7C PUSH2 0x1BF JUMP JUMPDEST PUSH1 0x40 MLOAD DUP1 DUP3 PUSH30 0xFFFFFFFFFFFFFFFFFFFFFFFFFFFFFFFFFFFFFFFFFFFFFFFFFFFFFFFFFFFF NOT AND PUSH30 0xFFFFFFFFFFFFFFFFFFFFFFFFFFFFFFFFFFFFFFFFFFFFFFFFFFFFFFFFFFFF NOT AND DUP2 MSTORE PUSH1 0x20 ADD SWAP2 POP POP PUSH1 0x40 MLOAD DUP1 SWAP2 SUB SWAP1 RETURN JUMPDEST CALLVALUE DUP1 ISZERO PUSH2 0xE0 JUMPI PUSH1 0x0 DUP1 REVERT JUMPDEST POP PUSH2 0xE9 PUSH2 0x1F0 JUMP JUMPDEST PUSH1 0x40 MLOAD DUP1 DUP3 PUSH28 0xFFFFFFFFFFFFFFFFFFFFFFFFFFFFFFFFFFFFFFFFFFFFFFFFFFFFFFFF NOT AND PUSH28 0xFFFFFFFFFFFFFFFFFFFFFFFFFFFFFFFFFFFFFFFFFFFFFFFFFFFFFFFF NOT AND DUP2 MSTORE PUSH1 0x20 ADD SWAP2 POP POP PUSH1 0x40 MLOAD DUP1 SWAP2 SUB SWAP1 RETURN JUMPDEST CALLVALUE DUP1 ISZERO PUSH2 0x149 JUMPI PUSH1 0x0 DUP1 REVERT JUMPDEST POP PUSH2 0x152 PUSH2 0x21F JUMP JUMPDEST STOP JUMPDEST CALLVALUE DUP1 ISZERO PUSH2 0x160 JUMPI PUSH1 0x0 DUP1 REVERT JUMPDEST POP PUSH2 0x169 PUSH2 0x331 JUMP JUMPDEST PUSH1 0x40 MLOAD DUP1 DUP3 PUSH29 0xFFFFFFFFFFFFFFFFFFFFFFFFFFFFFFFFFFFFFFFFFFFFFFFFFFFFFFFFFF NOT AND PUSH29 0xFFFFFFFFFFFFFFFFFFFFFFFFFFFFFFFFFFFFFFFFFFFFFFFFFFFFFFFFFF NOT AND DUP2 MSTORE PUSH1 0x20 ADD SWAP2 POP POP PUSH1 0x40 MLOAD DUP1 SWAP2 SUB SWAP1 RETURN JUMPDEST PUSH1 0x0 PUSH1 0x3 SWAP1 SLOAD SWAP1 PUSH2 0x100 EXP SWAP1 DIV PUSH31 0x1000000000000000000000000000000000000000000000000000000000000 MUL DUP2 JUMP JUMPDEST PUSH1 0x0 PUSH1 0x5 SWAP1 SLOAD SWAP1 PUSH2 0x100 EXP SWAP1 DIV PUSH29 0x100000000000000000000000000000000000000000000000000000000 MUL DUP2 JUMP JUMPDEST PUSH32 0x6162630000000000000000000000000000000000000000000000000000000000 PUSH1 0x0 DUP1 PUSH2 0x100 EXP DUP2 SLOAD DUP2 PUSH3 0xFFFFFF MUL NOT AND SWAP1 DUP4 PUSH30 0x10000000000000000000000000000000000000000000000000000000000 SWAP1 DIV MUL OR SWAP1 SSTORE POP PUSH32 0x6162000000000000000000000000000000000000000000000000000000000000 PUSH1 0x0 PUSH1 0x3 PUSH2 0x100 EXP DUP2 SLOAD DUP2 PUSH2 0xFFFF MUL NOT AND SWAP1 DUP4 PUSH31 0x1000000000000000000000000000000000000000000000000000000000000 SWAP1 DIV MUL OR SWAP1 SSTORE POP PUSH32 0x6162630000000000000000000000000000000000000000000000000000000000 PUSH1 0x0 PUSH1 0x5 PUSH2 0x100 EXP DUP2 SLOAD DUP2 PUSH4 0xFFFFFFFF MUL NOT AND SWAP1 DUP4 PUSH29 0x100000000000000000000000000000000000000000000000000000000 SWAP1 DIV MUL OR SWAP1 SSTORE POP JUMP JUMPDEST PUSH1 0x0 DUP1 SWAP1 SLOAD SWAP1 PUSH2 0x100 EXP SWAP1 DIV PUSH30 0x10000000000000000000000000000000000000000000000000000000000 MUL DUP2 JUMP INVALID LOG1 PUSH6 0x627A7A723058 KECCAK256 COINBASE 0x4d 0xd9 MUL PUSH31 0xDACFBB6071C89FCCF977DFC25A0FDB025B368802DBF63E81251E4000290000 "
				},
				"gasEstimates": {
					"creation": {
						"codeDepositCost": "181600",
						"executionCost": "226",
						"totalCost": "181826"
					},
					"external": {
						"b2()": "500",
						"b3()": "516",
						"b4()": "522",
						"setter()": "61093"
					}
				},
				"methodIdentifiers": {
					"b2()": "0add6ef2",
					"b3()": "e9b61909",
					"b4()": "3db3fb0a",
					"setter()": "3f3108f7"
				}
			},
			"userdoc": {
				"methods": {}
			}
		}
	}
}