{
	"day11(loops)/loops.sol": {
		"Loops": {
			"abi": [
				{
					"constant": false,
					"inputs": [],
					"name": "While",
					"outputs": [],
					"payable": false,
					"stateMutability": "nonpayable",
					"type": "function"
				},
				{
					"constant": false,
					"inputs": [],
					"name": "For",
					"outputs": [],
					"payable": false,
					"stateMutability": "nonpayable",
					"type": "function"
				},
				{
					"constant": true,
					"inputs": [
						{
							"name": "",
							"type": "uint256"
						}
					],
					"name": "arr1",
					"outputs": [
						{
							"name": "",
							"type": "uint256"
						}
					],
					"payable": false,
					"stateMutability": "view",
					"type": "function"
				},
				{
					"constant": true,
					"inputs": [
						{
							"name": "",
							"type": "uint256"
						}
					],
					"name": "arr3",
					"outputs": [
						{
							"name": "",
							"type": "uint256"
						}
					],
					"payable": false,
					"stateMutability": "view",
					"type": "function"
				},
				{
					"constant": false,
					"inputs": [],
					"name": "doWhile",
					"outputs": [],
					"payable": false,
					"stateMutability": "nonpayable",
					"type": "function"
				},
				{
					"constant": true,
					"inputs": [
						{
							"name": "",
							"type": "uint256"
						}
					],
					"name": "arr2",
					"outputs": [
						{
							"name": "",
							"type": "uint256"
						}
					],
					"payable": false,
					"stateMutability": "view",
					"type": "function"
				}
			],
			"devdoc": {
				"methods": {}
			},
			"evm": {
				"assembly": "    /* \"day11(loops)/loops.sol\":142:775  contract Loops{\r... */\n  mstore(0x40, 0x80)\n  callvalue\n    /* \"--CODEGEN--\":8:17   */\n  dup1\n    /* \"--CODEGEN--\":5:7   */\n  iszero\n  tag_1\n  jumpi\n    /* \"--CODEGEN--\":30:31   */\n  0x0\n    /* \"--CODEGEN--\":27:28   */\n  dup1\n    /* \"--CODEGEN--\":20:32   */\n  revert\n    /* \"--CODEGEN--\":5:7   */\ntag_1:\n    /* \"day11(loops)/loops.sol\":142:775  contract Loops{\r... */\n  pop\n  dataSize(sub_0)\n  dup1\n  dataOffset(sub_0)\n  0x0\n  codecopy\n  0x0\n  return\nstop\n\nsub_0: assembly {\n        /* \"day11(loops)/loops.sol\":142:775  contract Loops{\r... */\n      mstore(0x40, 0x80)\n      jumpi(tag_1, lt(calldatasize, 0x4))\n      calldataload(0x0)\n      0x100000000000000000000000000000000000000000000000000000000\n      swap1\n      div\n      0xffffffff\n      and\n      dup1\n      0x19a8f4a4\n      eq\n      tag_2\n      jumpi\n      dup1\n      0x58120bde\n      eq\n      tag_3\n      jumpi\n      dup1\n      0x6987b1fb\n      eq\n      tag_4\n      jumpi\n      dup1\n      0x8732ded8\n      eq\n      tag_5\n      jumpi\n      dup1\n      0xc0d44075\n      eq\n      tag_6\n      jumpi\n      dup1\n      0xedf0099b\n      eq\n      tag_7\n      jumpi\n    tag_1:\n      0x0\n      dup1\n      revert\n        /* \"day11(loops)/loops.sol\":307:459  function While() public{\r... */\n    tag_2:\n      callvalue\n        /* \"--CODEGEN--\":8:17   */\n      dup1\n        /* \"--CODEGEN--\":5:7   */\n      iszero\n      tag_8\n      jumpi\n        /* \"--CODEGEN--\":30:31   */\n      0x0\n        /* \"--CODEGEN--\":27:28   */\n      dup1\n        /* \"--CODEGEN--\":20:32   */\n      revert\n        /* \"--CODEGEN--\":5:7   */\n    tag_8:\n        /* \"day11(loops)/loops.sol\":307:459  function While() public{\r... */\n      pop\n      tag_9\n      jump(tag_10)\n    tag_9:\n      stop\n        /* \"day11(loops)/loops.sol\":483:589  function For() public{\r... */\n    tag_3:\n      callvalue\n        /* \"--CODEGEN--\":8:17   */\n      dup1\n        /* \"--CODEGEN--\":5:7   */\n      iszero\n      tag_11\n      jumpi\n        /* \"--CODEGEN--\":30:31   */\n      0x0\n        /* \"--CODEGEN--\":27:28   */\n      dup1\n        /* \"--CODEGEN--\":20:32   */\n      revert\n        /* \"--CODEGEN--\":5:7   */\n    tag_11:\n        /* \"day11(loops)/loops.sol\":483:589  function For() public{\r... */\n      pop\n      tag_12\n      jump(tag_13)\n    tag_12:\n      stop\n        /* \"day11(loops)/loops.sol\":163:183  uint [3] public arr1 */\n    tag_4:\n      callvalue\n        /* \"--CODEGEN--\":8:17   */\n      dup1\n        /* \"--CODEGEN--\":5:7   */\n      iszero\n      tag_14\n      jumpi\n        /* \"--CODEGEN--\":30:31   */\n      0x0\n        /* \"--CODEGEN--\":27:28   */\n      dup1\n        /* \"--CODEGEN--\":20:32   */\n      revert\n        /* \"--CODEGEN--\":5:7   */\n    tag_14:\n        /* \"day11(loops)/loops.sol\":163:183  uint [3] public arr1 */\n      pop\n      tag_15\n      0x4\n      dup1\n      calldatasize\n      sub\n        /* \"--CODEGEN--\":13:15   */\n      0x20\n        /* \"--CODEGEN--\":8:11   */\n      dup2\n        /* \"--CODEGEN--\":5:16   */\n      lt\n        /* \"--CODEGEN--\":2:4   */\n      iszero\n      tag_16\n      jumpi\n        /* \"--CODEGEN--\":29:30   */\n      0x0\n        /* \"--CODEGEN--\":26:27   */\n      dup1\n        /* \"--CODEGEN--\":19:31   */\n      revert\n        /* \"--CODEGEN--\":2:4   */\n    tag_16:\n        /* \"day11(loops)/loops.sol\":163:183  uint [3] public arr1 */\n      dup2\n      add\n      swap1\n      dup1\n      dup1\n      calldataload\n      swap1\n      0x20\n      add\n      swap1\n      swap3\n      swap2\n      swap1\n      pop\n      pop\n      pop\n      jump(tag_17)\n    tag_15:\n      mload(0x40)\n      dup1\n      dup3\n      dup2\n      mstore\n      0x20\n      add\n      swap2\n      pop\n      pop\n      mload(0x40)\n      dup1\n      swap2\n      sub\n      swap1\n      return\n        /* \"day11(loops)/loops.sol\":244:264  uint [3] public arr3 */\n    tag_5:\n      callvalue\n        /* \"--CODEGEN--\":8:17   */\n      dup1\n        /* \"--CODEGEN--\":5:7   */\n      iszero\n      tag_18\n      jumpi\n        /* \"--CODEGEN--\":30:31   */\n      0x0\n        /* \"--CODEGEN--\":27:28   */\n      dup1\n        /* \"--CODEGEN--\":20:32   */\n      revert\n        /* \"--CODEGEN--\":5:7   */\n    tag_18:\n        /* \"day11(loops)/loops.sol\":244:264  uint [3] public arr3 */\n      pop\n      tag_19\n      0x4\n      dup1\n      calldatasize\n      sub\n        /* \"--CODEGEN--\":13:15   */\n      0x20\n        /* \"--CODEGEN--\":8:11   */\n      dup2\n        /* \"--CODEGEN--\":5:16   */\n      lt\n        /* \"--CODEGEN--\":2:4   */\n      iszero\n      tag_20\n      jumpi\n        /* \"--CODEGEN--\":29:30   */\n      0x0\n        /* \"--CODEGEN--\":26:27   */\n      dup1\n        /* \"--CODEGEN--\":19:31   */\n      revert\n        /* \"--CODEGEN--\":2:4   */\n    tag_20:\n        /* \"day11(loops)/loops.sol\":244:264  uint [3] public arr3 */\n      dup2\n      add\n      swap1\n      dup1\n      dup1\n      calldataload\n      swap1\n      0x20\n      add\n      swap1\n      swap3\n      swap2\n      swap1\n      pop\n      pop\n      pop\n      jump(tag_21)\n    tag_19:\n      mload(0x40)\n      dup1\n      dup3\n      dup2\n      mstore\n      0x20\n      add\n      swap2\n      pop\n      pop\n      mload(0x40)\n      dup1\n      swap2\n      sub\n      swap1\n      return\n        /* \"day11(loops)/loops.sol\":614:772  function doWhile() public {\r... */\n    tag_6:\n      callvalue\n        /* \"--CODEGEN--\":8:17   */\n      dup1\n        /* \"--CODEGEN--\":5:7   */\n      iszero\n      tag_22\n      jumpi\n        /* \"--CODEGEN--\":30:31   */\n      0x0\n        /* \"--CODEGEN--\":27:28   */\n      dup1\n        /* \"--CODEGEN--\":20:32   */\n      revert\n        /* \"--CODEGEN--\":5:7   */\n    tag_22:\n        /* \"day11(loops)/loops.sol\":614:772  function doWhile() public {\r... */\n      pop\n      tag_23\n      jump(tag_24)\n    tag_23:\n      stop\n        /* \"day11(loops)/loops.sol\":205:225  uint [3] public arr2 */\n    tag_7:\n      callvalue\n        /* \"--CODEGEN--\":8:17   */\n      dup1\n        /* \"--CODEGEN--\":5:7   */\n      iszero\n      tag_25\n      jumpi\n        /* \"--CODEGEN--\":30:31   */\n      0x0\n        /* \"--CODEGEN--\":27:28   */\n      dup1\n        /* \"--CODEGEN--\":20:32   */\n      revert\n        /* \"--CODEGEN--\":5:7   */\n    tag_25:\n        /* \"day11(loops)/loops.sol\":205:225  uint [3] public arr2 */\n      pop\n      tag_26\n      0x4\n      dup1\n      calldatasize\n      sub\n        /* \"--CODEGEN--\":13:15   */\n      0x20\n        /* \"--CODEGEN--\":8:11   */\n      dup2\n        /* \"--CODEGEN--\":5:16   */\n      lt\n        /* \"--CODEGEN--\":2:4   */\n      iszero\n      tag_27\n      jumpi\n        /* \"--CODEGEN--\":29:30   */\n      0x0\n        /* \"--CODEGEN--\":26:27   */\n      dup1\n        /* \"--CODEGEN--\":19:31   */\n      revert\n        /* \"--CODEGEN--\":2:4   */\n    tag_27:\n        /* \"day11(loops)/loops.sol\":205:225  uint [3] public arr2 */\n      dup2\n      add\n      swap1\n      dup1\n      dup1\n      calldataload\n      swap1\n      0x20\n      add\n      swap1\n      swap3\n      swap2\n      swap1\n      pop\n      pop\n      pop\n      jump(tag_28)\n    tag_26:\n      mload(0x40)\n      dup1\n      dup3\n      dup2\n      mstore\n      0x20\n      add\n      swap2\n      pop\n      pop\n      mload(0x40)\n      dup1\n      swap2\n      sub\n      swap1\n      return\n        /* \"day11(loops)/loops.sol\":307:459  function While() public{\r... */\n    tag_10:\n        /* \"day11(loops)/loops.sol\":341:351  uint count */\n      0x0\n        /* \"day11(loops)/loops.sol\":362:452  while(count<arr1.length){\r... */\n    tag_30:\n        /* \"day11(loops)/loops.sol\":374:385  arr1.length */\n      0x3\n        /* \"day11(loops)/loops.sol\":368:373  count */\n      dup2\n        /* \"day11(loops)/loops.sol\":368:385  count<arr1.length */\n      lt\n        /* \"day11(loops)/loops.sol\":362:452  while(count<arr1.length){\r... */\n      iszero\n      tag_31\n      jumpi\n        /* \"day11(loops)/loops.sol\":413:418  count */\n      dup1\n        /* \"day11(loops)/loops.sol\":401:405  arr1 */\n      0x0\n        /* \"day11(loops)/loops.sol\":406:411  count */\n      dup3\n        /* \"day11(loops)/loops.sol\":401:412  arr1[count] */\n      0x3\n      dup2\n      lt\n      iszero\n      iszero\n      tag_32\n      jumpi\n      invalid\n    tag_32:\n      add\n        /* \"day11(loops)/loops.sol\":401:418  arr1[count]=count */\n      dup2\n      swap1\n      sstore\n      pop\n        /* \"day11(loops)/loops.sol\":433:440  count++ */\n      dup1\n      dup1\n      0x1\n      add\n      swap2\n      pop\n      pop\n        /* \"day11(loops)/loops.sol\":362:452  while(count<arr1.length){\r... */\n      jump(tag_30)\n    tag_31:\n        /* \"day11(loops)/loops.sol\":307:459  function While() public{\r... */\n      pop\n      jump\t// out\n        /* \"day11(loops)/loops.sol\":483:589  function For() public{\r... */\n    tag_13:\n        /* \"day11(loops)/loops.sol\":519:525  uint i */\n      0x0\n        /* \"day11(loops)/loops.sol\":526:527  0 */\n      dup1\n        /* \"day11(loops)/loops.sol\":519:527  uint i=0 */\n      swap1\n      pop\n        /* \"day11(loops)/loops.sol\":515:582  for(uint i=0;i<arr2.length;i++){\r... */\n    tag_35:\n        /* \"day11(loops)/loops.sol\":530:541  arr2.length */\n      0x3\n        /* \"day11(loops)/loops.sol\":528:529  i */\n      dup2\n        /* \"day11(loops)/loops.sol\":528:541  i<arr2.length */\n      lt\n        /* \"day11(loops)/loops.sol\":515:582  for(uint i=0;i<arr2.length;i++){\r... */\n      iszero\n      tag_36\n      jumpi\n        /* \"day11(loops)/loops.sol\":569:570  i */\n      dup1\n        /* \"day11(loops)/loops.sol\":561:565  arr2 */\n      0x3\n        /* \"day11(loops)/loops.sol\":566:567  i */\n      dup3\n        /* \"day11(loops)/loops.sol\":561:568  arr2[i] */\n      0x3\n      dup2\n      lt\n      iszero\n      iszero\n      tag_38\n      jumpi\n      invalid\n    tag_38:\n      add\n        /* \"day11(loops)/loops.sol\":561:570  arr2[i]=i */\n      dup2\n      swap1\n      sstore\n      pop\n        /* \"day11(loops)/loops.sol\":542:545  i++ */\n      dup1\n      dup1\n      0x1\n      add\n      swap2\n      pop\n      pop\n        /* \"day11(loops)/loops.sol\":515:582  for(uint i=0;i<arr2.length;i++){\r... */\n      jump(tag_35)\n    tag_36:\n      pop\n        /* \"day11(loops)/loops.sol\":483:589  function For() public{\r... */\n      jump\t// out\n        /* \"day11(loops)/loops.sol\":163:183  uint [3] public arr1 */\n    tag_17:\n      0x0\n      dup2\n      0x3\n      dup2\n      lt\n      iszero\n      iszero\n      tag_40\n      jumpi\n      invalid\n    tag_40:\n      add\n      0x0\n      swap2\n      pop\n      swap1\n      pop\n      sload\n      dup2\n      jump\t// out\n        /* \"day11(loops)/loops.sol\":244:264  uint [3] public arr3 */\n    tag_21:\n      0x6\n      dup2\n      0x3\n      dup2\n      lt\n      iszero\n      iszero\n      tag_42\n      jumpi\n      invalid\n    tag_42:\n      add\n      0x0\n      swap2\n      pop\n      swap1\n      pop\n      sload\n      dup2\n      jump\t// out\n        /* \"day11(loops)/loops.sol\":614:772  function doWhile() public {\r... */\n    tag_24:\n        /* \"day11(loops)/loops.sol\":651:661  uint count */\n      0x0\n        /* \"day11(loops)/loops.sol\":672:765  do{\r... */\n    tag_45:\n        /* \"day11(loops)/loops.sol\":701:706  count */\n      dup1\n        /* \"day11(loops)/loops.sol\":689:693  arr3 */\n      0x6\n        /* \"day11(loops)/loops.sol\":694:699  count */\n      dup3\n        /* \"day11(loops)/loops.sol\":689:700  arr3[count] */\n      0x3\n      dup2\n      lt\n      iszero\n      iszero\n      tag_48\n      jumpi\n      invalid\n    tag_48:\n      add\n        /* \"day11(loops)/loops.sol\":689:706  arr3[count]=count */\n      dup2\n      swap1\n      sstore\n      pop\n        /* \"day11(loops)/loops.sol\":721:728  count++ */\n      dup1\n      dup1\n      0x1\n      add\n      swap2\n      pop\n      pop\n        /* \"day11(loops)/loops.sol\":752:763  arr3.length */\n      0x3\n        /* \"day11(loops)/loops.sol\":746:751  count */\n      dup2\n        /* \"day11(loops)/loops.sol\":746:763  count<arr3.length */\n      lt\n        /* \"day11(loops)/loops.sol\":672:765  do{\r... */\n      iszero\n      iszero\n      tag_45\n      jumpi\n        /* \"day11(loops)/loops.sol\":614:772  function doWhile() public {\r... */\n      pop\n      jump\t// out\n        /* \"day11(loops)/loops.sol\":205:225  uint [3] public arr2 */\n    tag_28:\n      0x3\n      dup2\n      0x3\n      dup2\n      lt\n      iszero\n      iszero\n      tag_50\n      jumpi\n      invalid\n    tag_50:\n      add\n      0x0\n      swap2\n      pop\n      swap1\n      pop\n      sload\n      dup2\n      jump\t// out\n\n    auxdata: 0xa165627a7a723058207f2ed0a3a535a6b7a6955a0cd952acf467410095cfa115adc7f0e8a737f4019b0029\n}\n",
				"bytecode": {
					"linkReferences": {},
					"object": "608060405234801561001057600080fd5b506102bb806100206000396000f3fe608060405260043610610078576000357c0100000000000000000000000000000000000000000000000000000000900463ffffffff16806319a8f4a41461007d57806358120bde146100945780636987b1fb146100ab5780638732ded8146100fa578063c0d4407514610149578063edf0099b14610160575b600080fd5b34801561008957600080fd5b506100926101af565b005b3480156100a057600080fd5b506100a96101e0565b005b3480156100b757600080fd5b506100e4600480360360208110156100ce57600080fd5b8101908080359060200190929190505050610214565b6040518082815260200191505060405180910390f35b34801561010657600080fd5b506101336004803603602081101561011d57600080fd5b810190808035906020019092919050505061022e565b6040518082815260200191505060405180910390f35b34801561015557600080fd5b5061015e610248565b005b34801561016c57600080fd5b506101996004803603602081101561018357600080fd5b8101908080359060200190929190505050610275565b6040518082815260200191505060405180910390f35b60005b60038110156101dd57806000826003811015156101cb57fe5b018190555080806001019150506101b2565b50565b60008090505b600381101561021157806003826003811015156101ff57fe5b018190555080806001019150506101e6565b50565b60008160038110151561022357fe5b016000915090505481565b60068160038110151561023d57fe5b016000915090505481565b60005b8060068260038110151561025b57fe5b0181905550808060010191505060038110151561024b5750565b60038160038110151561028457fe5b01600091509050548156fea165627a7a723058207f2ed0a3a535a6b7a6955a0cd952acf467410095cfa115adc7f0e8a737f4019b0029",
					"opcodes": "PUSH1 0x80 PUSH1 0x40 MSTORE CALLVALUE DUP1 ISZERO PUSH2 0x10 JUMPI PUSH1 0x0 DUP1 REVERT JUMPDEST POP PUSH2 0x2BB DUP1 PUSH2 0x20 PUSH1 0x0 CODECOPY PUSH1 0x0 RETURN INVALID PUSH1 0x80 PUSH1 0x40 MSTORE PUSH1 0x4 CALLDATASIZE LT PUSH2 0x78 JUMPI PUSH1 0x0 CALLDATALOAD PUSH29 0x100000000000000000000000000000000000000000000000000000000 SWAP1 DIV PUSH4 0xFFFFFFFF AND DUP1 PUSH4 0x19A8F4A4 EQ PUSH2 0x7D JUMPI DUP1 PUSH4 0x58120BDE EQ PUSH2 0x94 JUMPI DUP1 PUSH4 0x6987B1FB EQ PUSH2 0xAB JUMPI DUP1 PUSH4 0x8732DED8 EQ PUSH2 0xFA JUMPI DUP1 PUSH4 0xC0D44075 EQ PUSH2 0x149 JUMPI DUP1 PUSH4 0xEDF0099B EQ PUSH2 0x160 JUMPI JUMPDEST PUSH1 0x0 DUP1 REVERT JUMPDEST CALLVALUE DUP1 ISZERO PUSH2 0x89 JUMPI PUSH1 0x0 DUP1 REVERT JUMPDEST POP PUSH2 0x92 PUSH2 0x1AF JUMP JUMPDEST STOP JUMPDEST CALLVALUE DUP1 ISZERO PUSH2 0xA0 JUMPI PUSH1 0x0 DUP1 REVERT JUMPDEST POP PUSH2 0xA9 PUSH2 0x1E0 JUMP JUMPDEST STOP JUMPDEST CALLVALUE DUP1 ISZERO PUSH2 0xB7 JUMPI PUSH1 0x0 DUP1 REVERT JUMPDEST POP PUSH2 0xE4 PUSH1 0x4 DUP1 CALLDATASIZE SUB PUSH1 0x20 DUP2 LT ISZERO PUSH2 0xCE JUMPI PUSH1 0x0 DUP1 REVERT JUMPDEST DUP2 ADD SWAP1 DUP1 DUP1 CALLDATALOAD SWAP1 PUSH1 0x20 ADD SWAP1 SWAP3 SWAP2 SWAP1 POP POP POP PUSH2 0x214 JUMP JUMPDEST PUSH1 0x40 MLOAD DUP1 DUP3 DUP2 MSTORE PUSH1 0x20 ADD SWAP2 POP POP PUSH1 0x40 MLOAD DUP1 SWAP2 SUB SWAP1 RETURN JUMPDEST CALLVALUE DUP1 ISZERO PUSH2 0x106 JUMPI PUSH1 0x0 DUP1 REVERT JUMPDEST POP PUSH2 0x133 PUSH1 0x4 DUP1 CALLDATASIZE SUB PUSH1 0x20 DUP2 LT ISZERO PUSH2 0x11D JUMPI PUSH1 0x0 DUP1 REVERT JUMPDEST DUP2 ADD SWAP1 DUP1 DUP1 CALLDATALOAD SWAP1 PUSH1 0x20 ADD SWAP1 SWAP3 SWAP2 SWAP1 POP POP POP PUSH2 0x22E JUMP JUMPDEST PUSH1 0x40 MLOAD DUP1 DUP3 DUP2 MSTORE PUSH1 0x20 ADD SWAP2 POP POP PUSH1 0x40 MLOAD DUP1 SWAP2 SUB SWAP1 RETURN JUMPDEST CALLVALUE DUP1 ISZERO PUSH2 0x155 JUMPI PUSH1 0x0 DUP1 REVERT JUMPDEST POP PUSH2 0x15E PUSH2 0x248 JUMP JUMPDEST STOP JUMPDEST CALLVALUE DUP1 ISZERO PUSH2 0x16C JUMPI PUSH1 0x0 DUP1 REVERT JUMPDEST POP PUSH2 0x199 PUSH1 0x4 DUP1 CALLDATASIZE SUB PUSH1 0x20 DUP2 LT ISZERO PUSH2 0x183 JUMPI PUSH1 0x0 DUP1 REVERT JUMPDEST DUP2 ADD SWAP1 DUP1 DUP1 CALLDATALOAD SWAP1 PUSH1 0x20 ADD SWAP1 SWAP3 SWAP2 SWAP1 POP POP POP PUSH2 0x275 JUMP JUMPDEST PUSH1 0x40 MLOAD DUP1 DUP3 DUP2 MSTORE PUSH1 0x20 ADD SWAP2 POP POP PUSH1 0x40 MLOAD DUP1 SWAP2 SUB SWAP1 RETURN JUMPDEST PUSH1 0x0 JUMPDEST PUSH1 0x3 DUP2 LT ISZERO PUSH2 0x1DD JUMPI DUP1 PUSH1 0x0 DUP3 PUSH1 0x3 DUP2 LT ISZERO ISZERO PUSH2 0x1CB JUMPI INVALID JUMPDEST ADD DUP2 SWAP1 SSTORE POP DUP1 DUP1 PUSH1 0x1 ADD SWAP2 POP POP PUSH2 0x1B2 JUMP JUMPDEST POP JUMP JUMPDEST PUSH1 0x0 DUP1 SWAP1 POP JUMPDEST PUSH1 0x3 DUP2 LT ISZERO PUSH2 0x211 JUMPI DUP1 PUSH1 0x3 DUP3 PUSH1 0x3 DUP2 LT ISZERO ISZERO PUSH2 0x1FF JUMPI INVALID JUMPDEST ADD DUP2 SWAP1 SSTORE POP DUP1 DUP1 PUSH1 0x1 ADD SWAP2 POP POP PUSH2 0x1E6 JUMP JUMPDEST POP JUMP JUMPDEST PUSH1 0x0 DUP2 PUSH1 0x3 DUP2 LT ISZERO ISZERO PUSH2 0x223 JUMPI INVALID JUMPDEST ADD PUSH1 0x0 SWAP2 POP SWAP1 POP SLOAD DUP2 JUMP JUMPDEST PUSH1 0x6 DUP2 PUSH1 0x3 DUP2 LT ISZERO ISZERO PUSH2 0x23D JUMPI INVALID JUMPDEST ADD PUSH1 0x0 SWAP2 POP SWAP1 POP SLOAD DUP2 JUMP JUMPDEST PUSH1 0x0 JUMPDEST DUP1 PUSH1 0x6 DUP3 PUSH1 0x3 DUP2 LT ISZERO ISZERO PUSH2 0x25B JUMPI INVALID JUMPDEST ADD DUP2 SWAP1 SSTORE POP DUP1 DUP1 PUSH1 0x1 ADD SWAP2 POP POP PUSH1 0x3 DUP2 LT ISZERO ISZERO PUSH2 0x24B JUMPI POP JUMP JUMPDEST PUSH1 0x3 DUP2 PUSH1 0x3 DUP2 LT ISZERO ISZERO PUSH2 0x284 JUMPI INVALID JUMPDEST ADD PUSH1 0x0 SWAP2 POP SWAP1 POP SLOAD DUP2 JUMP INVALID LOG1 PUSH6 0x627A7A723058 KECCAK256 PUSH32 0x2ED0A3A535A6B7A6955A0CD952ACF467410095CFA115ADC7F0E8A737F4019B00 0x29 "
				},
				"gasEstimates": {
					"creation": {
						"codeDepositCost": "139800",
						"executionCost": "183",
						"totalCost": "139983"
					},
					"external": {
						"For()": "infinite",
						"While()": "infinite",
						"arr1(uint256)": "568",
						"arr2(uint256)": "634",
						"arr3(uint256)": "590",
						"doWhile()": "infinite"
					}
				},
				"methodIdentifiers": {
					"For()": "58120bde",
					"While()": "19a8f4a4",
					"arr1(uint256)": "6987b1fb",
					"arr2(uint256)": "edf0099b",
					"arr3(uint256)": "8732ded8",
					"doWhile()": "c0d44075"
				}
			},
			"userdoc": {
				"methods": {}
			}
		}
	}
}