{
	"data": {
		"bytecode": {
			"linkReferences": {},
			"object": "6080604052608060405190810160405280600a60ff168152602001601460ff168152602001601e60ff168152602001602860ff168152506000906004610046929190610059565b5034801561005357600080fd5b506100c3565b826004810192821561008d579160200282015b8281111561008c578251829060ff1690559160200191906001019061006c565b5b50905061009a919061009e565b5090565b6100c091905b808211156100bc5760008160009055506001016100a4565b5090565b90565b610207806100d26000396000f3fe608060405260043610610057576000357c0100000000000000000000000000000000000000000000000000000000900463ffffffff1680631ab06ee51461005c578063be1c766b146100a1578063fd1ee54c146100cc575b600080fd5b34801561006857600080fd5b5061009f6004803603604081101561007f57600080fd5b81019080803590602001909291908035906020019092919050505061011b565b005b3480156100ad57600080fd5b506100b66101b8565b6040518082815260200191505060405180910390f35b3480156100d857600080fd5b50610105600480360360208110156100ef57600080fd5b81019080803590602001909291905050506101c1565b6040518082815260200191505060405180910390f35b60006101256101b8565b9050808310151561019e576040517f08c379a00000000000000000000000000000000000000000000000000000000081526004018080602001828103825260118152602001807f6172726179206f7574206f6620626f6e6400000000000000000000000000000081525060200191505060405180910390fd5b816000846004811015156101ae57fe5b0181905550505050565b60006004905090565b6000816004811015156101d057fe5b01600091509050548156fea165627a7a72305820834386117575a5a94315f149b2b3a4916a9c33010013c25b7584106da3f526740029",
			"opcodes": "PUSH1 0x80 PUSH1 0x40 MSTORE PUSH1 0x80 PUSH1 0x40 MLOAD SWAP1 DUP2 ADD PUSH1 0x40 MSTORE DUP1 PUSH1 0xA PUSH1 0xFF AND DUP2 MSTORE PUSH1 0x20 ADD PUSH1 0x14 PUSH1 0xFF AND DUP2 MSTORE PUSH1 0x20 ADD PUSH1 0x1E PUSH1 0xFF AND DUP2 MSTORE PUSH1 0x20 ADD PUSH1 0x28 PUSH1 0xFF AND DUP2 MSTORE POP PUSH1 0x0 SWAP1 PUSH1 0x4 PUSH2 0x46 SWAP3 SWAP2 SWAP1 PUSH2 0x59 JUMP JUMPDEST POP CALLVALUE DUP1 ISZERO PUSH2 0x53 JUMPI PUSH1 0x0 DUP1 REVERT JUMPDEST POP PUSH2 0xC3 JUMP JUMPDEST DUP3 PUSH1 0x4 DUP2 ADD SWAP3 DUP3 ISZERO PUSH2 0x8D JUMPI SWAP2 PUSH1 0x20 MUL DUP3 ADD JUMPDEST DUP3 DUP2 GT ISZERO PUSH2 0x8C JUMPI DUP3 MLOAD DUP3 SWAP1 PUSH1 0xFF AND SWAP1 SSTORE SWAP2 PUSH1 0x20 ADD SWAP2 SWAP1 PUSH1 0x1 ADD SWAP1 PUSH2 0x6C JUMP JUMPDEST JUMPDEST POP SWAP1 POP PUSH2 0x9A SWAP2 SWAP1 PUSH2 0x9E JUMP JUMPDEST POP SWAP1 JUMP JUMPDEST PUSH2 0xC0 SWAP2 SWAP1 JUMPDEST DUP1 DUP3 GT ISZERO PUSH2 0xBC JUMPI PUSH1 0x0 DUP2 PUSH1 0x0 SWAP1 SSTORE POP PUSH1 0x1 ADD PUSH2 0xA4 JUMP JUMPDEST POP SWAP1 JUMP JUMPDEST SWAP1 JUMP JUMPDEST PUSH2 0x207 DUP1 PUSH2 0xD2 PUSH1 0x0 CODECOPY PUSH1 0x0 RETURN INVALID PUSH1 0x80 PUSH1 0x40 MSTORE PUSH1 0x4 CALLDATASIZE LT PUSH2 0x57 JUMPI PUSH1 0x0 CALLDATALOAD PUSH29 0x100000000000000000000000000000000000000000000000000000000 SWAP1 DIV PUSH4 0xFFFFFFFF AND DUP1 PUSH4 0x1AB06EE5 EQ PUSH2 0x5C JUMPI DUP1 PUSH4 0xBE1C766B EQ PUSH2 0xA1 JUMPI DUP1 PUSH4 0xFD1EE54C EQ PUSH2 0xCC JUMPI JUMPDEST PUSH1 0x0 DUP1 REVERT JUMPDEST CALLVALUE DUP1 ISZERO PUSH2 0x68 JUMPI PUSH1 0x0 DUP1 REVERT JUMPDEST POP PUSH2 0x9F PUSH1 0x4 DUP1 CALLDATASIZE SUB PUSH1 0x40 DUP2 LT ISZERO PUSH2 0x7F JUMPI PUSH1 0x0 DUP1 REVERT JUMPDEST DUP2 ADD SWAP1 DUP1 DUP1 CALLDATALOAD SWAP1 PUSH1 0x20 ADD SWAP1 SWAP3 SWAP2 SWAP1 DUP1 CALLDATALOAD SWAP1 PUSH1 0x20 ADD SWAP1 SWAP3 SWAP2 SWAP1 POP POP POP PUSH2 0x11B JUMP JUMPDEST STOP JUMPDEST CALLVALUE DUP1 ISZERO PUSH2 0xAD JUMPI PUSH1 0x0 DUP1 REVERT JUMPDEST POP PUSH2 0xB6 PUSH2 0x1B8 JUMP JUMPDEST PUSH1 0x40 MLOAD DUP1 DUP3 DUP2 MSTORE PUSH1 0x20 ADD SWAP2 POP POP PUSH1 0x40 MLOAD DUP1 SWAP2 SUB SWAP1 RETURN JUMPDEST CALLVALUE DUP1 ISZERO PUSH2 0xD8 JUMPI PUSH1 0x0 DUP1 REVERT JUMPDEST POP PUSH2 0x105 PUSH1 0x4 DUP1 CALLDATASIZE SUB PUSH1 0x20 DUP2 LT ISZERO PUSH2 0xEF JUMPI PUSH1 0x0 DUP1 REVERT JUMPDEST DUP2 ADD SWAP1 DUP1 DUP1 CALLDATALOAD SWAP1 PUSH1 0x20 ADD SWAP1 SWAP3 SWAP2 SWAP1 POP POP POP PUSH2 0x1C1 JUMP JUMPDEST PUSH1 0x40 MLOAD DUP1 DUP3 DUP2 MSTORE PUSH1 0x20 ADD SWAP2 POP POP PUSH1 0x40 MLOAD DUP1 SWAP2 SUB SWAP1 RETURN JUMPDEST PUSH1 0x0 PUSH2 0x125 PUSH2 0x1B8 JUMP JUMPDEST SWAP1 POP DUP1 DUP4 LT ISZERO ISZERO PUSH2 0x19E JUMPI PUSH1 0x40 MLOAD PUSH32 0x8C379A000000000000000000000000000000000000000000000000000000000 DUP2 MSTORE PUSH1 0x4 ADD DUP1 DUP1 PUSH1 0x20 ADD DUP3 DUP2 SUB DUP3 MSTORE PUSH1 0x11 DUP2 MSTORE PUSH1 0x20 ADD DUP1 PUSH32 0x6172726179206F7574206F6620626F6E64000000000000000000000000000000 DUP2 MSTORE POP PUSH1 0x20 ADD SWAP2 POP POP PUSH1 0x40 MLOAD DUP1 SWAP2 SUB SWAP1 REVERT JUMPDEST DUP2 PUSH1 0x0 DUP5 PUSH1 0x4 DUP2 LT ISZERO ISZERO PUSH2 0x1AE JUMPI INVALID JUMPDEST ADD DUP2 SWAP1 SSTORE POP POP POP POP JUMP JUMPDEST PUSH1 0x0 PUSH1 0x4 SWAP1 POP SWAP1 JUMP JUMPDEST PUSH1 0x0 DUP2 PUSH1 0x4 DUP2 LT ISZERO ISZERO PUSH2 0x1D0 JUMPI INVALID JUMPDEST ADD PUSH1 0x0 SWAP2 POP SWAP1 POP SLOAD DUP2 JUMP INVALID LOG1 PUSH6 0x627A7A723058 KECCAK256 DUP4 NUMBER DUP7 GT PUSH22 0x75A5A94315F149B2B3A4916A9C33010013C25B758410 PUSH14 0xA3F5267400290000000000000000 "
		},
		"gasEstimates": {
			"creation": {
				"codeDepositCost": "103800",
				"executionCost": "infinite",
				"totalCost": "infinite"
			},
			"external": {
				"getLength()": "224",
				"nums(uint256)": "568",
				"set(uint256,uint256)": "20372"
			}
		},
		"methodIdentifiers": {
			"getLength()": "be1c766b",
			"nums(uint256)": "fd1ee54c",
			"set(uint256,uint256)": "1ab06ee5"
		}
	},
	"abi": [
		{
			"constant": false,
			"inputs": [
				{
					"name": "index",
					"type": "uint256"
				},
				{
					"name": "value",
					"type": "uint256"
				}
			],
			"name": "set",
			"outputs": [],
			"payable": false,
			"stateMutability": "nonpayable",
			"type": "function"
		},
		{
			"constant": true,
			"inputs": [],
			"name": "getLength",
			"outputs": [
				{
					"name": "",
					"type": "uint256"
				}
			],
			"payable": false,
			"stateMutability": "view",
			"type": "function"
		},
		{
			"constant": true,
			"inputs": [
				{
					"name": "",
					"type": "uint256"
				}
			],
			"name": "nums",
			"outputs": [
				{
					"name": "",
					"type": "uint256"
				}
			],
			"payable": false,
			"stateMutability": "view",
			"type": "function"
		}
	]
}