{
	"day3(local variable)/local.sol": {
		"Local": {
			"abi": [
				{
					"inputs": [],
					"name": "setAge",
					"outputs": [
						{
							"internalType": "uint256",
							"name": "",
							"type": "uint256"
						}
					],
					"stateMutability": "pure",
					"type": "function"
				}
			],
			"devdoc": {
				"kind": "dev",
				"methods": {},
				"version": 1
			},
			"evm": {
				"assembly": "    /* \"day3(local variable)/local.sol\":72:435  contract Local{... */\n  mstore(0x40, 0x80)\n  callvalue\n  dup1\n  iszero\n  tag_1\n  jumpi\n  0x00\n  dup1\n  revert\ntag_1:\n  pop\n  dataSize(sub_0)\n  dup1\n  dataOffset(sub_0)\n  0x00\n  codecopy\n  0x00\n  return\nstop\n\nsub_0: assembly {\n        /* \"day3(local variable)/local.sol\":72:435  contract Local{... */\n      mstore(0x40, 0x80)\n      callvalue\n      dup1\n      iszero\n      tag_1\n      jumpi\n      0x00\n      dup1\n      revert\n    tag_1:\n      pop\n      jumpi(tag_2, lt(calldatasize, 0x04))\n      shr(0xe0, calldataload(0x00))\n      dup1\n      0x457676ee\n      eq\n      tag_3\n      jumpi\n    tag_2:\n      0x00\n      dup1\n      revert\n        /* \"day3(local variable)/local.sol\":160:432  function setAge() pure public returns(uint){... */\n    tag_3:\n      tag_4\n      tag_5\n      jump\t// in\n    tag_4:\n      mload(0x40)\n      tag_6\n      swap2\n      swap1\n      tag_7\n      jump\t// in\n    tag_6:\n      mload(0x40)\n      dup1\n      swap2\n      sub\n      swap1\n      return\n    tag_5:\n        /* \"day3(local variable)/local.sol\":198:202  uint */\n      0x00\n        /* \"day3(local variable)/local.sol\":355:373  string memory name */\n      dup1\n        /* \"day3(local variable)/local.sol\":355:381  string memory name=\"Nitin\" */\n      mload(0x40)\n      dup1\n      0x40\n      add\n      0x40\n      mstore\n      dup1\n      0x05\n      dup2\n      mstore\n      0x20\n      add\n      0x4e6974696e000000000000000000000000000000000000000000000000000000\n      dup2\n      mstore\n      pop\n      swap1\n      pop\n        /* \"day3(local variable)/local.sol\":392:400  uint age */\n      0x00\n        /* \"day3(local variable)/local.sol\":401:403  19 */\n      0x13\n        /* \"day3(local variable)/local.sol\":392:403  uint age=19 */\n      swap1\n      pop\n        /* \"day3(local variable)/local.sol\":421:424  age */\n      dup1\n        /* \"day3(local variable)/local.sol\":414:424  return age */\n      swap3\n      pop\n      pop\n      pop\n        /* \"day3(local variable)/local.sol\":160:432  function setAge() pure public returns(uint){... */\n      swap1\n      jump\t// out\n        /* \"#utility.yul\":7:84   */\n    tag_9:\n        /* \"#utility.yul\":44:51   */\n      0x00\n        /* \"#utility.yul\":73:78   */\n      dup2\n        /* \"#utility.yul\":62:78   */\n      swap1\n      pop\n        /* \"#utility.yul\":7:84   */\n      swap2\n      swap1\n      pop\n      jump\t// out\n        /* \"#utility.yul\":90:208   */\n    tag_10:\n        /* \"#utility.yul\":177:201   */\n      tag_14\n        /* \"#utility.yul\":195:200   */\n      dup2\n        /* \"#utility.yul\":177:201   */\n      tag_9\n      jump\t// in\n    tag_14:\n        /* \"#utility.yul\":172:175   */\n      dup3\n        /* \"#utility.yul\":165:202   */\n      mstore\n        /* \"#utility.yul\":90:208   */\n      pop\n      pop\n      jump\t// out\n        /* \"#utility.yul\":214:436   */\n    tag_7:\n        /* \"#utility.yul\":307:311   */\n      0x00\n        /* \"#utility.yul\":345:347   */\n      0x20\n        /* \"#utility.yul\":334:343   */\n      dup3\n        /* \"#utility.yul\":330:348   */\n      add\n        /* \"#utility.yul\":322:348   */\n      swap1\n      pop\n        /* \"#utility.yul\":358:429   */\n      tag_16\n        /* \"#utility.yul\":426:427   */\n      0x00\n        /* \"#utility.yul\":415:424   */\n      dup4\n        /* \"#utility.yul\":411:428   */\n      add\n        /* \"#utility.yul\":402:408   */\n      dup5\n        /* \"#utility.yul\":358:429   */\n      tag_10\n      jump\t// in\n    tag_16:\n        /* \"#utility.yul\":214:436   */\n      swap3\n      swap2\n      pop\n      pop\n      jump\t// out\n\n    auxdata: 0xa2646970667358221220ac4266285731e7b1b163963eb9856cc73f3ee5d1b3e6dc4c724db22b8931f67c64736f6c63430008190033\n}\n",
				"bytecode": {
					"linkReferences": {},
					"object": "6080604052348015600e575f80fd5b5060ee8061001b5f395ff3fe6080604052348015600e575f80fd5b50600436106026575f3560e01c8063457676ee14602a575b5f80fd5b60306044565b604051603b919060a1565b60405180910390f35b5f806040518060400160405280600581526020017f4e6974696e00000000000000000000000000000000000000000000000000000081525090505f60139050809250505090565b5f819050919050565b609b81608b565b82525050565b5f60208201905060b25f8301846094565b9291505056fea2646970667358221220ac4266285731e7b1b163963eb9856cc73f3ee5d1b3e6dc4c724db22b8931f67c64736f6c63430008190033",
					"opcodes": "PUSH1 0x80 PUSH1 0x40 MSTORE CALLVALUE DUP1 ISZERO PUSH1 0xE JUMPI PUSH0 DUP1 REVERT JUMPDEST POP PUSH1 0xEE DUP1 PUSH2 0x1B PUSH0 CODECOPY PUSH0 RETURN INVALID PUSH1 0x80 PUSH1 0x40 MSTORE CALLVALUE DUP1 ISZERO PUSH1 0xE JUMPI PUSH0 DUP1 REVERT JUMPDEST POP PUSH1 0x4 CALLDATASIZE LT PUSH1 0x26 JUMPI PUSH0 CALLDATALOAD PUSH1 0xE0 SHR DUP1 PUSH4 0x457676EE EQ PUSH1 0x2A JUMPI JUMPDEST PUSH0 DUP1 REVERT JUMPDEST PUSH1 0x30 PUSH1 0x44 JUMP JUMPDEST PUSH1 0x40 MLOAD PUSH1 0x3B SWAP2 SWAP1 PUSH1 0xA1 JUMP JUMPDEST PUSH1 0x40 MLOAD DUP1 SWAP2 SUB SWAP1 RETURN JUMPDEST PUSH0 DUP1 PUSH1 0x40 MLOAD DUP1 PUSH1 0x40 ADD PUSH1 0x40 MSTORE DUP1 PUSH1 0x5 DUP2 MSTORE PUSH1 0x20 ADD PUSH32 0x4E6974696E000000000000000000000000000000000000000000000000000000 DUP2 MSTORE POP SWAP1 POP PUSH0 PUSH1 0x13 SWAP1 POP DUP1 SWAP3 POP POP POP SWAP1 JUMP JUMPDEST PUSH0 DUP2 SWAP1 POP SWAP2 SWAP1 POP JUMP JUMPDEST PUSH1 0x9B DUP2 PUSH1 0x8B JUMP JUMPDEST DUP3 MSTORE POP POP JUMP JUMPDEST PUSH0 PUSH1 0x20 DUP3 ADD SWAP1 POP PUSH1 0xB2 PUSH0 DUP4 ADD DUP5 PUSH1 0x94 JUMP JUMPDEST SWAP3 SWAP2 POP POP JUMP INVALID LOG2 PUSH5 0x6970667358 0x22 SLT KECCAK256 0xAC TIMESTAMP PUSH7 0x285731E7B1B163 SWAP7 RETURNDATACOPY 0xB9 DUP6 PUSH13 0xC73F3EE5D1B3E6DC4C724DB22B DUP10 BALANCE 0xF6 PUSH29 0x64736F6C63430008190033000000000000000000000000000000000000 "
				},
				"gasEstimates": {
					"creation": {
						"codeDepositCost": "47600",
						"executionCost": "97",
						"totalCost": "47697"
					},
					"external": {
						"setAge()": "388"
					}
				},
				"methodIdentifiers": {
					"setAge()": "457676ee"
				}
			},
			"storageLayout": {
				"storage": [],
				"types": null
			},
			"userdoc": {
				"kind": "user",
				"methods": {},
				"version": 1
			}
		}
	}
}