{
	"day4(functions getter and setter)/function.sol": {
		"Function": {
			"abi": [
				{
					"constant": true,
					"inputs": [],
					"name": "getter",
					"outputs": [
						{
							"name": "",
							"type": "uint256"
						}
					],
					"payable": false,
					"stateMutability": "view",
					"type": "function"
				},
				{
					"constant": false,
					"inputs": [
						{
							"name": "newAge",
							"type": "uint256"
						}
					],
					"name": "setter",
					"outputs": [],
					"payable": false,
					"stateMutability": "nonpayable",
					"type": "function"
				}
			],
			"devdoc": {
				"methods": {}
			},
			"evm": {
				"assembly": "    /* \"day4(functions getter and setter)/function.sol\":72:543  contract Function{\r... */\n  mstore(0x40, 0x80)\n    /* \"day4(functions getter and setter)/function.sol\":105:107  10 */\n  0xa\n    /* \"day4(functions getter and setter)/function.sol\":96:107  uint age=10 */\n  0x0\n  sstore\n    /* \"day4(functions getter and setter)/function.sol\":72:543  contract Function{\r... */\n  callvalue\n    /* \"--CODEGEN--\":8:17   */\n  dup1\n    /* \"--CODEGEN--\":5:7   */\n  iszero\n  tag_1\n  jumpi\n    /* \"--CODEGEN--\":30:31   */\n  0x0\n    /* \"--CODEGEN--\":27:28   */\n  dup1\n    /* \"--CODEGEN--\":20:32   */\n  revert\n    /* \"--CODEGEN--\":5:7   */\ntag_1:\n    /* \"day4(functions getter and setter)/function.sol\":72:543  contract Function{\r... */\n  pop\n  dataSize(sub_0)\n  dup1\n  dataOffset(sub_0)\n  0x0\n  codecopy\n  0x0\n  return\nstop\n\nsub_0: assembly {\n        /* \"day4(functions getter and setter)/function.sol\":72:543  contract Function{\r... */\n      mstore(0x40, 0x80)\n      jumpi(tag_1, lt(calldatasize, 0x4))\n      calldataload(0x0)\n      0x100000000000000000000000000000000000000000000000000000000\n      swap1\n      div\n      0xffffffff\n      and\n      dup1\n      0x993a04b7\n      eq\n      tag_2\n      jumpi\n      dup1\n      0xd423740b\n      eq\n      tag_3\n      jumpi\n    tag_1:\n      0x0\n      dup1\n      revert\n        /* \"day4(functions getter and setter)/function.sol\":225:418  function getter() public view returns(uint){\r... */\n    tag_2:\n      callvalue\n        /* \"--CODEGEN--\":8:17   */\n      dup1\n        /* \"--CODEGEN--\":5:7   */\n      iszero\n      tag_4\n      jumpi\n        /* \"--CODEGEN--\":30:31   */\n      0x0\n        /* \"--CODEGEN--\":27:28   */\n      dup1\n        /* \"--CODEGEN--\":20:32   */\n      revert\n        /* \"--CODEGEN--\":5:7   */\n    tag_4:\n        /* \"day4(functions getter and setter)/function.sol\":225:418  function getter() public view returns(uint){\r... */\n      pop\n      tag_5\n      jump(tag_6)\n    tag_5:\n      mload(0x40)\n      dup1\n      dup3\n      dup2\n      mstore\n      0x20\n      add\n      swap2\n      pop\n      pop\n      mload(0x40)\n      dup1\n      swap2\n      sub\n      swap1\n      return\n        /* \"day4(functions getter and setter)/function.sol\":426:540  function setter(uint newAge) public{\r... */\n    tag_3:\n      callvalue\n        /* \"--CODEGEN--\":8:17   */\n      dup1\n        /* \"--CODEGEN--\":5:7   */\n      iszero\n      tag_7\n      jumpi\n        /* \"--CODEGEN--\":30:31   */\n      0x0\n        /* \"--CODEGEN--\":27:28   */\n      dup1\n        /* \"--CODEGEN--\":20:32   */\n      revert\n        /* \"--CODEGEN--\":5:7   */\n    tag_7:\n        /* \"day4(functions getter and setter)/function.sol\":426:540  function setter(uint newAge) public{\r... */\n      pop\n      tag_8\n      0x4\n      dup1\n      calldatasize\n      sub\n        /* \"--CODEGEN--\":13:15   */\n      0x20\n        /* \"--CODEGEN--\":8:11   */\n      dup2\n        /* \"--CODEGEN--\":5:16   */\n      lt\n        /* \"--CODEGEN--\":2:4   */\n      iszero\n      tag_9\n      jumpi\n        /* \"--CODEGEN--\":29:30   */\n      0x0\n        /* \"--CODEGEN--\":26:27   */\n      dup1\n        /* \"--CODEGEN--\":19:31   */\n      revert\n        /* \"--CODEGEN--\":2:4   */\n    tag_9:\n        /* \"day4(functions getter and setter)/function.sol\":426:540  function setter(uint newAge) public{\r... */\n      dup2\n      add\n      swap1\n      dup1\n      dup1\n      calldataload\n      swap1\n      0x20\n      add\n      swap1\n      swap3\n      swap2\n      swap1\n      pop\n      pop\n      pop\n      jump(tag_10)\n    tag_8:\n      stop\n        /* \"day4(functions getter and setter)/function.sol\":225:418  function getter() public view returns(uint){\r... */\n    tag_6:\n        /* \"day4(functions getter and setter)/function.sol\":263:267  uint */\n      0x0\n        /* \"day4(functions getter and setter)/function.sol\":392:395  age */\n      dup1\n      sload\n        /* \"day4(functions getter and setter)/function.sol\":385:395  return age */\n      swap1\n      pop\n        /* \"day4(functions getter and setter)/function.sol\":225:418  function getter() public view returns(uint){\r... */\n      swap1\n      jump\t// out\n        /* \"day4(functions getter and setter)/function.sol\":426:540  function setter(uint newAge) public{\r... */\n    tag_10:\n        /* \"day4(functions getter and setter)/function.sol\":476:482  newAge */\n      dup1\n        /* \"day4(functions getter and setter)/function.sol\":472:475  age */\n      0x0\n        /* \"day4(functions getter and setter)/function.sol\":472:482  age=newAge */\n      dup2\n      swap1\n      sstore\n      pop\n        /* \"day4(functions getter and setter)/function.sol\":426:540  function setter(uint newAge) public{\r... */\n      pop\n      jump\t// out\n\n    auxdata: 0xa165627a7a72305820b962fa76febff05860904892e299ab7f5c31481fae4828ba5e1b433fa395cbff0029\n}\n",
				"bytecode": {
					"linkReferences": {},
					"object": "6080604052600a60005534801561001557600080fd5b5060ec806100246000396000f3fe6080604052600436106049576000357c0100000000000000000000000000000000000000000000000000000000900463ffffffff168063993a04b714604e578063d423740b146076575b600080fd5b348015605957600080fd5b50606060ad565b6040518082815260200191505060405180910390f35b348015608157600080fd5b5060ab60048036036020811015609657600080fd5b810190808035906020019092919050505060b6565b005b60008054905090565b806000819055505056fea165627a7a72305820b962fa76febff05860904892e299ab7f5c31481fae4828ba5e1b433fa395cbff0029",
					"opcodes": "PUSH1 0x80 PUSH1 0x40 MSTORE PUSH1 0xA PUSH1 0x0 SSTORE CALLVALUE DUP1 ISZERO PUSH2 0x15 JUMPI PUSH1 0x0 DUP1 REVERT JUMPDEST POP PUSH1 0xEC DUP1 PUSH2 0x24 PUSH1 0x0 CODECOPY PUSH1 0x0 RETURN INVALID PUSH1 0x80 PUSH1 0x40 MSTORE PUSH1 0x4 CALLDATASIZE LT PUSH1 0x49 JUMPI PUSH1 0x0 CALLDATALOAD PUSH29 0x100000000000000000000000000000000000000000000000000000000 SWAP1 DIV PUSH4 0xFFFFFFFF AND DUP1 PUSH4 0x993A04B7 EQ PUSH1 0x4E JUMPI DUP1 PUSH4 0xD423740B EQ PUSH1 0x76 JUMPI JUMPDEST PUSH1 0x0 DUP1 REVERT JUMPDEST CALLVALUE DUP1 ISZERO PUSH1 0x59 JUMPI PUSH1 0x0 DUP1 REVERT JUMPDEST POP PUSH1 0x60 PUSH1 0xAD JUMP JUMPDEST PUSH1 0x40 MLOAD DUP1 DUP3 DUP2 MSTORE PUSH1 0x20 ADD SWAP2 POP POP PUSH1 0x40 MLOAD DUP1 SWAP2 SUB SWAP1 RETURN JUMPDEST CALLVALUE DUP1 ISZERO PUSH1 0x81 JUMPI PUSH1 0x0 DUP1 REVERT JUMPDEST POP PUSH1 0xAB PUSH1 0x4 DUP1 CALLDATASIZE SUB PUSH1 0x20 DUP2 LT ISZERO PUSH1 0x96 JUMPI PUSH1 0x0 DUP1 REVERT JUMPDEST DUP2 ADD SWAP1 DUP1 DUP1 CALLDATALOAD SWAP1 PUSH1 0x20 ADD SWAP1 SWAP3 SWAP2 SWAP1 POP POP POP PUSH1 0xB6 JUMP JUMPDEST STOP JUMPDEST PUSH1 0x0 DUP1 SLOAD SWAP1 POP SWAP1 JUMP JUMPDEST DUP1 PUSH1 0x0 DUP2 SWAP1 SSTORE POP POP JUMP INVALID LOG1 PUSH6 0x627A7A723058 KECCAK256 0xb9 PUSH3 0xFA76FE 0xbf CREATE PC PUSH1 0x90 0x48 SWAP3 0xe2 SWAP10 0xab PUSH32 0x5C31481FAE4828BA5E1B433FA395CBFF00290000000000000000000000000000 "
				},
				"gasEstimates": {
					"creation": {
						"codeDepositCost": "47200",
						"executionCost": "20105",
						"totalCost": "67305"
					},
					"external": {
						"getter()": "402",
						"setter(uint256)": "20253"
					}
				},
				"methodIdentifiers": {
					"getter()": "993a04b7",
					"setter(uint256)": "d423740b"
				}
			},
			"userdoc": {
				"methods": {}
			}
		}
	}
}